{
  "_format": "hh-sol-artifact-1",
  "contractName": "MyNewNFT",
  "sourceName": "contracts/MyNewNFT.sol",
  "abi": [
    {
      "inputs": [],
      "stateMutability": "nonpayable",
      "type": "constructor"
    },
    {
      "anonymous": false,
      "inputs": [
        {
          "indexed": true,
          "internalType": "address",
          "name": "owner",
          "type": "address"
        },
        {
          "indexed": true,
          "internalType": "address",
          "name": "approved",
          "type": "address"
        },
        {
          "indexed": true,
          "internalType": "uint256",
          "name": "tokenId",
          "type": "uint256"
        }
      ],
      "name": "Approval",
      "type": "event"
    },
    {
      "anonymous": false,
      "inputs": [
        {
          "indexed": true,
          "internalType": "address",
          "name": "owner",
          "type": "address"
        },
        {
          "indexed": true,
          "internalType": "address",
          "name": "operator",
          "type": "address"
        },
        {
          "indexed": false,
          "internalType": "bool",
          "name": "approved",
          "type": "bool"
        }
      ],
      "name": "ApprovalForAll",
      "type": "event"
    },
    {
      "anonymous": false,
      "inputs": [
        {
          "indexed": false,
          "internalType": "uint256",
          "name": "_fromTokenId",
          "type": "uint256"
        },
        {
          "indexed": false,
          "internalType": "uint256",
          "name": "_toTokenId",
          "type": "uint256"
        }
      ],
      "name": "BatchMetadataUpdate",
      "type": "event"
    },
    {
      "anonymous": false,
      "inputs": [
        {
          "indexed": false,
          "internalType": "uint256",
          "name": "_tokenId",
          "type": "uint256"
        }
      ],
      "name": "MetadataUpdate",
      "type": "event"
    },
    {
      "anonymous": false,
      "inputs": [
        {
          "indexed": true,
          "internalType": "address",
          "name": "previousOwner",
          "type": "address"
        },
        {
          "indexed": true,
          "internalType": "address",
          "name": "newOwner",
          "type": "address"
        }
      ],
      "name": "OwnershipTransferred",
      "type": "event"
    },
    {
      "anonymous": false,
      "inputs": [
        {
          "indexed": true,
          "internalType": "address",
          "name": "from",
          "type": "address"
        },
        {
          "indexed": true,
          "internalType": "address",
          "name": "to",
          "type": "address"
        },
        {
          "indexed": true,
          "internalType": "uint256",
          "name": "tokenId",
          "type": "uint256"
        }
      ],
      "name": "Transfer",
      "type": "event"
    },
    {
      "inputs": [
        {
          "internalType": "address",
          "name": "to",
          "type": "address"
        },
        {
          "internalType": "uint256",
          "name": "tokenId",
          "type": "uint256"
        }
      ],
      "name": "approve",
      "outputs": [],
      "stateMutability": "nonpayable",
      "type": "function"
    },
    {
      "inputs": [
        {
          "internalType": "address",
          "name": "owner",
          "type": "address"
        }
      ],
      "name": "balanceOf",
      "outputs": [
        {
          "internalType": "uint256",
          "name": "",
          "type": "uint256"
        }
      ],
      "stateMutability": "view",
      "type": "function"
    },
    {
      "inputs": [
        {
          "internalType": "uint256",
          "name": "tokenId",
          "type": "uint256"
        }
      ],
      "name": "getApproved",
      "outputs": [
        {
          "internalType": "address",
          "name": "",
          "type": "address"
        }
      ],
      "stateMutability": "view",
      "type": "function"
    },
    {
      "inputs": [
        {
          "internalType": "address",
          "name": "owner",
          "type": "address"
        },
        {
          "internalType": "address",
          "name": "operator",
          "type": "address"
        }
      ],
      "name": "isApprovedForAll",
      "outputs": [
        {
          "internalType": "bool",
          "name": "",
          "type": "bool"
        }
      ],
      "stateMutability": "view",
      "type": "function"
    },
    {
      "inputs": [],
      "name": "name",
      "outputs": [
        {
          "internalType": "string",
          "name": "",
          "type": "string"
        }
      ],
      "stateMutability": "view",
      "type": "function"
    },
    {
      "inputs": [],
      "name": "owner",
      "outputs": [
        {
          "internalType": "address",
          "name": "",
          "type": "address"
        }
      ],
      "stateMutability": "view",
      "type": "function"
    },
    {
      "inputs": [
        {
          "internalType": "uint256",
          "name": "tokenId",
          "type": "uint256"
        }
      ],
      "name": "ownerOf",
      "outputs": [
        {
          "internalType": "address",
          "name": "",
          "type": "address"
        }
      ],
      "stateMutability": "view",
      "type": "function"
    },
    {
      "inputs": [],
      "name": "renounceOwnership",
      "outputs": [],
      "stateMutability": "nonpayable",
      "type": "function"
    },
    {
      "inputs": [
        {
          "internalType": "address",
          "name": "to",
          "type": "address"
        },
        {
          "internalType": "string",
          "name": "uri",
          "type": "string"
        }
      ],
      "name": "safeMint",
      "outputs": [],
      "stateMutability": "nonpayable",
      "type": "function"
    },
    {
      "inputs": [
        {
          "internalType": "address",
          "name": "from",
          "type": "address"
        },
        {
          "internalType": "address",
          "name": "to",
          "type": "address"
        },
        {
          "internalType": "uint256",
          "name": "tokenId",
          "type": "uint256"
        }
      ],
      "name": "safeTransferFrom",
      "outputs": [],
      "stateMutability": "nonpayable",
      "type": "function"
    },
    {
      "inputs": [
        {
          "internalType": "address",
          "name": "from",
          "type": "address"
        },
        {
          "internalType": "address",
          "name": "to",
          "type": "address"
        },
        {
          "internalType": "uint256",
          "name": "tokenId",
          "type": "uint256"
        },
        {
          "internalType": "bytes",
          "name": "data",
          "type": "bytes"
        }
      ],
      "name": "safeTransferFrom",
      "outputs": [],
      "stateMutability": "nonpayable",
      "type": "function"
    },
    {
      "inputs": [
        {
          "internalType": "address",
          "name": "operator",
          "type": "address"
        },
        {
          "internalType": "bool",
          "name": "approved",
          "type": "bool"
        }
      ],
      "name": "setApprovalForAll",
      "outputs": [],
      "stateMutability": "nonpayable",
      "type": "function"
    },
    {
      "inputs": [
        {
          "internalType": "bytes4",
          "name": "interfaceId",
          "type": "bytes4"
        }
      ],
      "name": "supportsInterface",
      "outputs": [
        {
          "internalType": "bool",
          "name": "",
          "type": "bool"
        }
      ],
      "stateMutability": "view",
      "type": "function"
    },
    {
      "inputs": [],
      "name": "symbol",
      "outputs": [
        {
          "internalType": "string",
          "name": "",
          "type": "string"
        }
      ],
      "stateMutability": "view",
      "type": "function"
    },
    {
      "inputs": [
        {
          "internalType": "uint256",
          "name": "index",
          "type": "uint256"
        }
      ],
      "name": "tokenByIndex",
      "outputs": [
        {
          "internalType": "uint256",
          "name": "",
          "type": "uint256"
        }
      ],
      "stateMutability": "view",
      "type": "function"
    },
    {
      "inputs": [
        {
          "internalType": "address",
          "name": "owner",
          "type": "address"
        },
        {
          "internalType": "uint256",
          "name": "index",
          "type": "uint256"
        }
      ],
      "name": "tokenOfOwnerByIndex",
      "outputs": [
        {
          "internalType": "uint256",
          "name": "",
          "type": "uint256"
        }
      ],
      "stateMutability": "view",
      "type": "function"
    },
    {
      "inputs": [
        {
          "internalType": "uint256",
          "name": "tokenId",
          "type": "uint256"
        }
      ],
      "name": "tokenURI",
      "outputs": [
        {
          "internalType": "string",
          "name": "",
          "type": "string"
        }
      ],
      "stateMutability": "view",
      "type": "function"
    },
    {
      "inputs": [],
      "name": "totalSupply",
      "outputs": [
        {
          "internalType": "uint256",
          "name": "",
          "type": "uint256"
        }
      ],
      "stateMutability": "view",
      "type": "function"
    },
    {
      "inputs": [
        {
          "internalType": "address",
          "name": "from",
          "type": "address"
        },
        {
          "internalType": "address",
          "name": "to",
          "type": "address"
        },
        {
          "internalType": "uint256",
          "name": "tokenId",
          "type": "uint256"
        }
      ],
      "name": "transferFrom",
      "outputs": [],
      "stateMutability": "nonpayable",
      "type": "function"
    },
    {
      "inputs": [
        {
          "internalType": "address",
          "name": "newOwner",
          "type": "address"
        }
      ],
      "name": "transferOwnership",
      "outputs": [],
      "stateMutability": "nonpayable",
      "type": "function"
    }
  ],
  "bytecode": "0x60806040526040518060400160405280600a81526020017f4d79204e6577204e465400000000000000000000000000000000000000000000815250600c908051906020019062000051929190620002fc565b506040518060400160405280600581526020017f4d4e4e4654000000000000000000000000000000000000000000000000000000815250600d90805190602001906200009f929190620002fc565b50348015620000ad57600080fd5b50600c8054620000bd90620003ac565b80601f0160208091040260200160405190810160405280929190818152602001828054620000eb90620003ac565b80156200013c5780601f1062000110576101008083540402835291602001916200013c565b820191906000526020600020905b8154815290600101906020018083116200011e57829003601f168201915b5050505050600d80546200015090620003ac565b80601f01602080910402602001604051908101604052809291908181526020018280546200017e90620003ac565b8015620001cf5780601f10620001a357610100808354040283529160200191620001cf565b820191906000526020600020905b815481529060010190602001808311620001b157829003601f168201915b50505050508160009080519060200190620001ec929190620002fc565b50806001908051906020019062000205929190620002fc565b505050620002286200021c6200022e60201b60201c565b6200023660201b60201c565b62000411565b600033905090565b6000600b60009054906101000a900473ffffffffffffffffffffffffffffffffffffffff16905081600b60006101000a81548173ffffffffffffffffffffffffffffffffffffffff021916908373ffffffffffffffffffffffffffffffffffffffff1602179055508173ffffffffffffffffffffffffffffffffffffffff168173ffffffffffffffffffffffffffffffffffffffff167f8be0079c531659141344cd1fd0a4f28419497f9722a3daafe3b4186f6b6457e060405160405180910390a35050565b8280546200030a90620003ac565b90600052602060002090601f0160209004810192826200032e57600085556200037a565b82601f106200034957805160ff19168380011785556200037a565b828001600101855582156200037a579182015b82811115620003795782518255916020019190600101906200035c565b5b5090506200038991906200038d565b5090565b5b80821115620003a85760008160009055506001016200038e565b5090565b60006002820490506001821680620003c557607f821691505b60208210811415620003dc57620003db620003e2565b5b50919050565b7f4e487b7100000000000000000000000000000000000000000000000000000000600052602260045260246000fd5b61355280620004216000396000f3fe608060405234801561001057600080fd5b506004361061012c5760003560e01c806370a08231116100ad578063b88d4fde11610071578063b88d4fde14610343578063c87b56dd1461035f578063d204c45e1461038f578063e985e9c5146103ab578063f2fde38b146103db5761012c565b806370a08231146102b1578063715018a6146102e15780638da5cb5b146102eb57806395d89b4114610309578063a22cb465146103275761012c565b806323b872dd116100f457806323b872dd146101e95780632f745c591461020557806342842e0e146102355780634f6ccce7146102515780636352211e146102815761012c565b806301ffc9a71461013157806306fdde0314610161578063081812fc1461017f578063095ea7b3146101af57806318160ddd146101cb575b600080fd5b61014b6004803603810190610146919061277b565b6103f7565b6040516101589190612b81565b60405180910390f35b610169610409565b6040516101769190612b9c565b60405180910390f35b610199600480360381019061019491906127cd565b61049b565b6040516101a69190612b1a565b60405180910390f35b6101c960048036038101906101c4919061273f565b6104e1565b005b6101d36105f9565b6040516101e09190612dbe565b60405180910390f35b61020360048036038101906101fe91906125e5565b610606565b005b61021f600480360381019061021a919061273f565b610666565b60405161022c9190612dbe565b60405180910390f35b61024f600480360381019061024a91906125e5565b61070b565b005b61026b600480360381019061026691906127cd565b61072b565b6040516102789190612dbe565b60405180910390f35b61029b600480360381019061029691906127cd565b6107c2565b6040516102a89190612b1a565b60405180910390f35b6102cb60048036038101906102c69190612580565b610849565b6040516102d89190612dbe565b60405180910390f35b6102e9610901565b005b6102f3610915565b6040516103009190612b1a565b60405180910390f35b61031161093f565b60405161031e9190612b9c565b60405180910390f35b610341600480360381019061033c91906126af565b6109d1565b005b61035d60048036038101906103589190612634565b6109e7565b005b610379600480360381019061037491906127cd565b610a49565b6040516103869190612b9c565b60405180910390f35b6103a960048036038101906103a491906126eb565b610a5b565b005b6103c560048036038101906103c091906125a9565b610a8a565b6040516103d29190612b81565b60405180910390f35b6103f560048036038101906103f09190612580565b610b1e565b005b600061040282610ba2565b9050919050565b60606000805461041890612f8d565b80601f016020809104026020016040519081016040528092919081815260200182805461044490612f8d565b80156104915780601f1061046657610100808354040283529160200191610491565b820191906000526020600020905b81548152906001019060200180831161047457829003601f168201915b5050505050905090565b60006104a682610c03565b6004600083815260200190815260200160002060009054906101000a900473ffffffffffffffffffffffffffffffffffffffff169050919050565b60006104ec826107c2565b90508073ffffffffffffffffffffffffffffffffffffffff168373ffffffffffffffffffffffffffffffffffffffff16141561055d576040517f08c379a000000000000000000000000000000000000000000000000000000000815260040161055490612d3e565b60405180910390fd5b8073ffffffffffffffffffffffffffffffffffffffff1661057c610c4e565b73ffffffffffffffffffffffffffffffffffffffff1614806105ab57506105aa816105a5610c4e565b610a8a565b5b6105ea576040517f08c379a00000000000000000000000000000000000000000000000000000000081526004016105e190612d5e565b60405180910390fd5b6105f48383610c56565b505050565b6000600880549050905090565b610617610611610c4e565b82610d0f565b610656576040517f08c379a000000000000000000000000000000000000000000000000000000000815260040161064d90612bbe565b60405180910390fd5b610661838383610da4565b505050565b600061067183610849565b82106106b2576040517f08c379a00000000000000000000000000000000000000000000000000000000081526004016106a990612bde565b60405180910390fd5b600660008473ffffffffffffffffffffffffffffffffffffffff1673ffffffffffffffffffffffffffffffffffffffff168152602001908152602001600020600083815260200190815260200160002054905092915050565b610726838383604051806020016040528060008152506109e7565b505050565b60006107356105f9565b8210610776576040517f08c379a000000000000000000000000000000000000000000000000000000000815260040161076d90612d7e565b60405180910390fd5b600882815481106107b0577f4e487b7100000000000000000000000000000000000000000000000000000000600052603260045260246000fd5b90600052602060002001549050919050565b6000806107ce8361109e565b9050600073ffffffffffffffffffffffffffffffffffffffff168173ffffffffffffffffffffffffffffffffffffffff161415610840576040517f08c379a000000000000000000000000000000000000000000000000000000000815260040161083790612d1e565b60405180910390fd5b80915050919050565b60008073ffffffffffffffffffffffffffffffffffffffff168273ffffffffffffffffffffffffffffffffffffffff1614156108ba576040517f08c379a00000000000000000000000000000000000000000000000000000000081526004016108b190612cbe565b60405180910390fd5b600360008373ffffffffffffffffffffffffffffffffffffffff1673ffffffffffffffffffffffffffffffffffffffff168152602001908152602001600020549050919050565b6109096110db565b6109136000611159565b565b6000600b60009054906101000a900473ffffffffffffffffffffffffffffffffffffffff16905090565b60606001805461094e90612f8d565b80601f016020809104026020016040519081016040528092919081815260200182805461097a90612f8d565b80156109c75780601f1061099c576101008083540402835291602001916109c7565b820191906000526020600020905b8154815290600101906020018083116109aa57829003601f168201915b5050505050905090565b6109e36109dc610c4e565b838361121f565b5050565b6109f86109f2610c4e565b83610d0f565b610a37576040517f08c379a0000000000000000000000000000000000000000000000000000000008152600401610a2e90612bbe565b60405180910390fd5b610a438484848461138c565b50505050565b6060610a54826113e8565b9050919050565b610a636110db565b6000610a6f600e6114fb565b9050610a7b600e611509565b610a85838261151f565b505050565b6000600560008473ffffffffffffffffffffffffffffffffffffffff1673ffffffffffffffffffffffffffffffffffffffff16815260200190815260200160002060008373ffffffffffffffffffffffffffffffffffffffff1673ffffffffffffffffffffffffffffffffffffffff16815260200190815260200160002060009054906101000a900460ff16905092915050565b610b266110db565b600073ffffffffffffffffffffffffffffffffffffffff168173ffffffffffffffffffffffffffffffffffffffff161415610b96576040517f08c379a0000000000000000000000000000000000000000000000000000000008152600401610b8d90612c1e565b60405180910390fd5b610b9f81611159565b50565b6000634906490660e01b7bffffffffffffffffffffffffffffffffffffffffffffffffffffffff1916827bffffffffffffffffffffffffffffffffffffffffffffffffffffffff19161480610bfc5750610bfb8261153d565b5b9050919050565b610c0c816115b7565b610c4b576040517f08c379a0000000000000000000000000000000000000000000000000000000008152600401610c4290612d1e565b60405180910390fd5b50565b600033905090565b816004600083815260200190815260200160002060006101000a81548173ffffffffffffffffffffffffffffffffffffffff021916908373ffffffffffffffffffffffffffffffffffffffff160217905550808273ffffffffffffffffffffffffffffffffffffffff16610cc9836107c2565b73ffffffffffffffffffffffffffffffffffffffff167f8c5be1e5ebec7d5bd14f71427d1e84f3dd0314c0f7b2291e5b200ac8c7c3b92560405160405180910390a45050565b600080610d1b836107c2565b90508073ffffffffffffffffffffffffffffffffffffffff168473ffffffffffffffffffffffffffffffffffffffff161480610d5d5750610d5c8185610a8a565b5b80610d9b57508373ffffffffffffffffffffffffffffffffffffffff16610d838461049b565b73ffffffffffffffffffffffffffffffffffffffff16145b91505092915050565b8273ffffffffffffffffffffffffffffffffffffffff16610dc4826107c2565b73ffffffffffffffffffffffffffffffffffffffff1614610e1a576040517f08c379a0000000000000000000000000000000000000000000000000000000008152600401610e1190612c3e565b60405180910390fd5b600073ffffffffffffffffffffffffffffffffffffffff168273ffffffffffffffffffffffffffffffffffffffff161415610e8a576040517f08c379a0000000000000000000000000000000000000000000000000000000008152600401610e8190612c7e565b60405180910390fd5b610e9783838360016115f8565b8273ffffffffffffffffffffffffffffffffffffffff16610eb7826107c2565b73ffffffffffffffffffffffffffffffffffffffff1614610f0d576040517f08c379a0000000000000000000000000000000000000000000000000000000008152600401610f0490612c3e565b60405180910390fd5b6004600082815260200190815260200160002060006101000a81549073ffffffffffffffffffffffffffffffffffffffff02191690556001600360008573ffffffffffffffffffffffffffffffffffffffff1673ffffffffffffffffffffffffffffffffffffffff168152602001908152602001600020600082825403925050819055506001600360008473ffffffffffffffffffffffffffffffffffffffff1673ffffffffffffffffffffffffffffffffffffffff16815260200190815260200160002060008282540192505081905550816002600083815260200190815260200160002060006101000a81548173ffffffffffffffffffffffffffffffffffffffff021916908373ffffffffffffffffffffffffffffffffffffffff160217905550808273ffffffffffffffffffffffffffffffffffffffff168473ffffffffffffffffffffffffffffffffffffffff167fddf252ad1be2c89b69c2b068fc378daa952ba7f163c4a11628f55a4df523b3ef60405160405180910390a4611099838383600161160a565b505050565b60006002600083815260200190815260200160002060009054906101000a900473ffffffffffffffffffffffffffffffffffffffff169050919050565b6110e3610c4e565b73ffffffffffffffffffffffffffffffffffffffff16611101610915565b73ffffffffffffffffffffffffffffffffffffffff1614611157576040517f08c379a000000000000000000000000000000000000000000000000000000000815260040161114e90612cfe565b60405180910390fd5b565b6000600b60009054906101000a900473ffffffffffffffffffffffffffffffffffffffff16905081600b60006101000a81548173ffffffffffffffffffffffffffffffffffffffff021916908373ffffffffffffffffffffffffffffffffffffffff1602179055508173ffffffffffffffffffffffffffffffffffffffff168173ffffffffffffffffffffffffffffffffffffffff167f8be0079c531659141344cd1fd0a4f28419497f9722a3daafe3b4186f6b6457e060405160405180910390a35050565b8173ffffffffffffffffffffffffffffffffffffffff168373ffffffffffffffffffffffffffffffffffffffff16141561128e576040517f08c379a000000000000000000000000000000000000000000000000000000000815260040161128590612c9e565b60405180910390fd5b80600560008573ffffffffffffffffffffffffffffffffffffffff1673ffffffffffffffffffffffffffffffffffffffff16815260200190815260200160002060008473ffffffffffffffffffffffffffffffffffffffff1673ffffffffffffffffffffffffffffffffffffffff16815260200190815260200160002060006101000a81548160ff0219169083151502179055508173ffffffffffffffffffffffffffffffffffffffff168373ffffffffffffffffffffffffffffffffffffffff167f17307eab39ab6107e8899845ad3d59bd9653f200f220920489ca2b5937696c318360405161137f9190612b81565b60405180910390a3505050565b611397848484610da4565b6113a384848484611610565b6113e2576040517f08c379a00000000000000000000000000000000000000000000000000000000081526004016113d990612bfe565b60405180910390fd5b50505050565b60606113f382610c03565b6000600a6000848152602001908152602001600020805461141390612f8d565b80601f016020809104026020016040519081016040528092919081815260200182805461143f90612f8d565b801561148c5780601f106114615761010080835404028352916020019161148c565b820191906000526020600020905b81548152906001019060200180831161146f57829003601f168201915b50505050509050600061149d6117a7565b90506000815114156114b35781925050506114f6565b6000825111156114e85780826040516020016114d0929190612af6565b604051602081830303815290604052925050506114f6565b6114f1846117be565b925050505b919050565b600081600001549050919050565b6001816000016000828254019250508190555050565b611539828260405180602001604052806000815250611826565b5050565b60007f780e9d63000000000000000000000000000000000000000000000000000000007bffffffffffffffffffffffffffffffffffffffffffffffffffffffff1916827bffffffffffffffffffffffffffffffffffffffffffffffffffffffff191614806115b057506115af82611881565b5b9050919050565b60008073ffffffffffffffffffffffffffffffffffffffff166115d98361109e565b73ffffffffffffffffffffffffffffffffffffffff1614159050919050565b61160484848484611963565b50505050565b50505050565b60006116318473ffffffffffffffffffffffffffffffffffffffff16611ac3565b1561179a578373ffffffffffffffffffffffffffffffffffffffff1663150b7a0261165a610c4e565b8786866040518563ffffffff1660e01b815260040161167c9493929190612b35565b602060405180830381600087803b15801561169657600080fd5b505af19250505080156116c757506040513d601f19601f820116820180604052508101906116c491906127a4565b60015b61174a573d80600081146116f7576040519150601f19603f3d011682016040523d82523d6000602084013e6116fc565b606091505b50600081511415611742576040517f08c379a000000000000000000000000000000000000000000000000000000000815260040161173990612bfe565b60405180910390fd5b805181602001fd5b63150b7a0260e01b7bffffffffffffffffffffffffffffffffffffffffffffffffffffffff1916817bffffffffffffffffffffffffffffffffffffffffffffffffffffffff19161491505061179f565b600190505b949350505050565b606060405180602001604052806000815250905090565b60606117c982610c03565b60006117d36117a7565b905060008151116117f3576040518060200160405280600081525061181e565b806117fd84611ae6565b60405160200161180e929190612af6565b6040516020818303038152906040525b915050919050565b6118308383611c0a565b61183d6000848484611610565b61187c576040517f08c379a000000000000000000000000000000000000000000000000000000000815260040161187390612bfe565b60405180910390fd5b505050565b60007f80ac58cd000000000000000000000000000000000000000000000000000000007bffffffffffffffffffffffffffffffffffffffffffffffffffffffff1916827bffffffffffffffffffffffffffffffffffffffffffffffffffffffff1916148061194c57507f5b5e139f000000000000000000000000000000000000000000000000000000007bffffffffffffffffffffffffffffffffffffffffffffffffffffffff1916827bffffffffffffffffffffffffffffffffffffffffffffffffffffffff1916145b8061195c575061195b82611e28565b5b9050919050565b61196f84848484611e92565b60018111156119b3576040517f08c379a00000000000000000000000000000000000000000000000000000000081526004016119aa90612d9e565b60405180910390fd5b6000829050600073ffffffffffffffffffffffffffffffffffffffff168573ffffffffffffffffffffffffffffffffffffffff1614156119fb576119f681611e98565b611a3a565b8373ffffffffffffffffffffffffffffffffffffffff168573ffffffffffffffffffffffffffffffffffffffff1614611a3957611a388582611ee1565b5b5b600073ffffffffffffffffffffffffffffffffffffffff168473ffffffffffffffffffffffffffffffffffffffff161415611a7d57611a788161204e565b611abc565b8473ffffffffffffffffffffffffffffffffffffffff168473ffffffffffffffffffffffffffffffffffffffff1614611abb57611aba8482612191565b5b5b5050505050565b6000808273ffffffffffffffffffffffffffffffffffffffff163b119050919050565b606060006001611af584612210565b01905060008167ffffffffffffffff811115611b3a577f4e487b7100000000000000000000000000000000000000000000000000000000600052604160045260246000fd5b6040519080825280601f01601f191660200182016040528015611b6c5781602001600182028036833780820191505090505b509050600082602001820190505b600115611bff578080600190039150507f3031323334353637383961626364656600000000000000000000000000000000600a86061a8153600a8581611be9577f4e487b7100000000000000000000000000000000000000000000000000000000600052601260045260246000fd5b0494506000851415611bfa57611bff565b611b7a565b819350505050919050565b600073ffffffffffffffffffffffffffffffffffffffff168273ffffffffffffffffffffffffffffffffffffffff161415611c7a576040517f08c379a0000000000000000000000000000000000000000000000000000000008152600401611c7190612cde565b60405180910390fd5b611c83816115b7565b15611cc3576040517f08c379a0000000000000000000000000000000000000000000000000000000008152600401611cba90612c5e565b60405180910390fd5b611cd16000838360016115f8565b611cda816115b7565b15611d1a576040517f08c379a0000000000000000000000000000000000000000000000000000000008152600401611d1190612c5e565b60405180910390fd5b6001600360008473ffffffffffffffffffffffffffffffffffffffff1673ffffffffffffffffffffffffffffffffffffffff16815260200190815260200160002060008282540192505081905550816002600083815260200190815260200160002060006101000a81548173ffffffffffffffffffffffffffffffffffffffff021916908373ffffffffffffffffffffffffffffffffffffffff160217905550808273ffffffffffffffffffffffffffffffffffffffff16600073ffffffffffffffffffffffffffffffffffffffff167fddf252ad1be2c89b69c2b068fc378daa952ba7f163c4a11628f55a4df523b3ef60405160405180910390a4611e2460008383600161160a565b5050565b60007f01ffc9a7000000000000000000000000000000000000000000000000000000007bffffffffffffffffffffffffffffffffffffffffffffffffffffffff1916827bffffffffffffffffffffffffffffffffffffffffffffffffffffffff1916149050919050565b50505050565b6008805490506009600083815260200190815260200160002081905550600881908060018154018082558091505060019003906000526020600020016000909190919091505550565b60006001611eee84610849565b611ef89190612ea3565b9050600060076000848152602001908152602001600020549050818114611fdd576000600660008673ffffffffffffffffffffffffffffffffffffffff1673ffffffffffffffffffffffffffffffffffffffff168152602001908152602001600020600084815260200190815260200160002054905080600660008773ffffffffffffffffffffffffffffffffffffffff1673ffffffffffffffffffffffffffffffffffffffff168152602001908152602001600020600084815260200190815260200160002081905550816007600083815260200190815260200160002081905550505b6007600084815260200190815260200160002060009055600660008573ffffffffffffffffffffffffffffffffffffffff1673ffffffffffffffffffffffffffffffffffffffff16815260200190815260200160002060008381526020019081526020016000206000905550505050565b600060016008805490506120629190612ea3565b90506000600960008481526020019081526020016000205490506000600883815481106120b8577f4e487b7100000000000000000000000000000000000000000000000000000000600052603260045260246000fd5b906000526020600020015490508060088381548110612100577f4e487b7100000000000000000000000000000000000000000000000000000000600052603260045260246000fd5b906000526020600020018190555081600960008381526020019081526020016000208190555060096000858152602001908152602001600020600090556008805480612175577f4e487b7100000000000000000000000000000000000000000000000000000000600052603160045260246000fd5b6001900381819060005260206000200160009055905550505050565b600061219c83610849565b905081600660008573ffffffffffffffffffffffffffffffffffffffff1673ffffffffffffffffffffffffffffffffffffffff168152602001908152602001600020600083815260200190815260200160002081905550806007600084815260200190815260200160002081905550505050565b600080600090507a184f03e93ff9f4daa797ed6e38ed64bf6a1f0100000000000000008310612294577a184f03e93ff9f4daa797ed6e38ed64bf6a1f010000000000000000838161228a577f4e487b7100000000000000000000000000000000000000000000000000000000600052601260045260246000fd5b0492506040810190505b6d04ee2d6d415b85acef810000000083106122f7576d04ee2d6d415b85acef810000000083816122ed577f4e487b7100000000000000000000000000000000000000000000000000000000600052601260045260246000fd5b0492506020810190505b662386f26fc10000831061234c57662386f26fc100008381612342577f4e487b7100000000000000000000000000000000000000000000000000000000600052601260045260246000fd5b0492506010810190505b6305f5e100831061239b576305f5e1008381612391577f4e487b7100000000000000000000000000000000000000000000000000000000600052601260045260246000fd5b0492506008810190505b61271083106123e65761271083816123dc577f4e487b7100000000000000000000000000000000000000000000000000000000600052601260045260246000fd5b0492506004810190505b6064831061242f5760648381612425577f4e487b7100000000000000000000000000000000000000000000000000000000600052601260045260246000fd5b0492506002810190505b600a831061243e576001810190505b80915050919050565b600061245a61245584612dfe565b612dd9565b90508281526020810184848401111561247257600080fd5b61247d848285612f4b565b509392505050565b600061249861249384612e2f565b612dd9565b9050828152602081018484840111156124b057600080fd5b6124bb848285612f4b565b509392505050565b6000813590506124d2816134c0565b92915050565b6000813590506124e7816134d7565b92915050565b6000813590506124fc816134ee565b92915050565b600081519050612511816134ee565b92915050565b600082601f83011261252857600080fd5b8135612538848260208601612447565b91505092915050565b600082601f83011261255257600080fd5b8135612562848260208601612485565b91505092915050565b60008135905061257a81613505565b92915050565b60006020828403121561259257600080fd5b60006125a0848285016124c3565b91505092915050565b600080604083850312156125bc57600080fd5b60006125ca858286016124c3565b92505060206125db858286016124c3565b9150509250929050565b6000806000606084860312156125fa57600080fd5b6000612608868287016124c3565b9350506020612619868287016124c3565b925050604061262a8682870161256b565b9150509250925092565b6000806000806080858703121561264a57600080fd5b6000612658878288016124c3565b9450506020612669878288016124c3565b935050604061267a8782880161256b565b925050606085013567ffffffffffffffff81111561269757600080fd5b6126a387828801612517565b91505092959194509250565b600080604083850312156126c257600080fd5b60006126d0858286016124c3565b92505060206126e1858286016124d8565b9150509250929050565b600080604083850312156126fe57600080fd5b600061270c858286016124c3565b925050602083013567ffffffffffffffff81111561272957600080fd5b61273585828601612541565b9150509250929050565b6000806040838503121561275257600080fd5b6000612760858286016124c3565b92505060206127718582860161256b565b9150509250929050565b60006020828403121561278d57600080fd5b600061279b848285016124ed565b91505092915050565b6000602082840312156127b657600080fd5b60006127c484828501612502565b91505092915050565b6000602082840312156127df57600080fd5b60006127ed8482850161256b565b91505092915050565b6127ff81612ed7565b82525050565b61280e81612ee9565b82525050565b600061281f82612e60565b6128298185612e76565b9350612839818560208601612f5a565b6128428161307d565b840191505092915050565b600061285882612e6b565b6128628185612e87565b9350612872818560208601612f5a565b61287b8161307d565b840191505092915050565b600061289182612e6b565b61289b8185612e98565b93506128ab818560208601612f5a565b80840191505092915050565b60006128c4602d83612e87565b91506128cf8261308e565b604082019050919050565b60006128e7602b83612e87565b91506128f2826130dd565b604082019050919050565b600061290a603283612e87565b91506129158261312c565b604082019050919050565b600061292d602683612e87565b91506129388261317b565b604082019050919050565b6000612950602583612e87565b915061295b826131ca565b604082019050919050565b6000612973601c83612e87565b915061297e82613219565b602082019050919050565b6000612996602483612e87565b91506129a182613242565b604082019050919050565b60006129b9601983612e87565b91506129c482613291565b602082019050919050565b60006129dc602983612e87565b91506129e7826132ba565b604082019050919050565b60006129ff602083612e87565b9150612a0a82613309565b602082019050919050565b6000612a22602083612e87565b9150612a2d82613332565b602082019050919050565b6000612a45601883612e87565b9150612a508261335b565b602082019050919050565b6000612a68602183612e87565b9150612a7382613384565b604082019050919050565b6000612a8b603d83612e87565b9150612a96826133d3565b604082019050919050565b6000612aae602c83612e87565b9150612ab982613422565b604082019050919050565b6000612ad1603583612e87565b9150612adc82613471565b604082019050919050565b612af081612f41565b82525050565b6000612b028285612886565b9150612b0e8284612886565b91508190509392505050565b6000602082019050612b2f60008301846127f6565b92915050565b6000608082019050612b4a60008301876127f6565b612b5760208301866127f6565b612b646040830185612ae7565b8181036060830152612b768184612814565b905095945050505050565b6000602082019050612b966000830184612805565b92915050565b60006020820190508181036000830152612bb6818461284d565b905092915050565b60006020820190508181036000830152612bd7816128b7565b9050919050565b60006020820190508181036000830152612bf7816128da565b9050919050565b60006020820190508181036000830152612c17816128fd565b9050919050565b60006020820190508181036000830152612c3781612920565b9050919050565b60006020820190508181036000830152612c5781612943565b9050919050565b60006020820190508181036000830152612c7781612966565b9050919050565b60006020820190508181036000830152612c9781612989565b9050919050565b60006020820190508181036000830152612cb7816129ac565b9050919050565b60006020820190508181036000830152612cd7816129cf565b9050919050565b60006020820190508181036000830152612cf7816129f2565b9050919050565b60006020820190508181036000830152612d1781612a15565b9050919050565b60006020820190508181036000830152612d3781612a38565b9050919050565b60006020820190508181036000830152612d5781612a5b565b9050919050565b60006020820190508181036000830152612d7781612a7e565b9050919050565b60006020820190508181036000830152612d9781612aa1565b9050919050565b60006020820190508181036000830152612db781612ac4565b9050919050565b6000602082019050612dd36000830184612ae7565b92915050565b6000612de3612df4565b9050612def8282612fbf565b919050565b6000604051905090565b600067ffffffffffffffff821115612e1957612e1861304e565b5b612e228261307d565b9050602081019050919050565b600067ffffffffffffffff821115612e4a57612e4961304e565b5b612e538261307d565b9050602081019050919050565b600081519050919050565b600081519050919050565b600082825260208201905092915050565b600082825260208201905092915050565b600081905092915050565b6000612eae82612f41565b9150612eb983612f41565b925082821015612ecc57612ecb612ff0565b5b828203905092915050565b6000612ee282612f21565b9050919050565b60008115159050919050565b60007fffffffff0000000000000000000000000000000000000000000000000000000082169050919050565b600073ffffffffffffffffffffffffffffffffffffffff82169050919050565b6000819050919050565b82818337600083830152505050565b60005b83811015612f78578082015181840152602081019050612f5d565b83811115612f87576000848401525b50505050565b60006002820490506001821680612fa557607f821691505b60208210811415612fb957612fb861301f565b5b50919050565b612fc88261307d565b810181811067ffffffffffffffff82111715612fe757612fe661304e565b5b80604052505050565b7f4e487b7100000000000000000000000000000000000000000000000000000000600052601160045260246000fd5b7f4e487b7100000000000000000000000000000000000000000000000000000000600052602260045260246000fd5b7f4e487b7100000000000000000000000000000000000000000000000000000000600052604160045260246000fd5b6000601f19601f8301169050919050565b7f4552433732313a2063616c6c6572206973206e6f7420746f6b656e206f776e6560008201527f72206f7220617070726f76656400000000000000000000000000000000000000602082015250565b7f455243373231456e756d657261626c653a206f776e657220696e646578206f7560008201527f74206f6620626f756e6473000000000000000000000000000000000000000000602082015250565b7f4552433732313a207472616e7366657220746f206e6f6e20455243373231526560008201527f63656976657220696d706c656d656e7465720000000000000000000000000000602082015250565b7f4f776e61626c653a206e6577206f776e657220697320746865207a65726f206160008201527f6464726573730000000000000000000000000000000000000000000000000000602082015250565b7f4552433732313a207472616e736665722066726f6d20696e636f72726563742060008201527f6f776e6572000000000000000000000000000000000000000000000000000000602082015250565b7f4552433732313a20746f6b656e20616c7265616479206d696e74656400000000600082015250565b7f4552433732313a207472616e7366657220746f20746865207a65726f2061646460008201527f7265737300000000000000000000000000000000000000000000000000000000602082015250565b7f4552433732313a20617070726f766520746f2063616c6c657200000000000000600082015250565b7f4552433732313a2061646472657373207a65726f206973206e6f74206120766160008201527f6c6964206f776e65720000000000000000000000000000000000000000000000602082015250565b7f4552433732313a206d696e7420746f20746865207a65726f2061646472657373600082015250565b7f4f776e61626c653a2063616c6c6572206973206e6f7420746865206f776e6572600082015250565b7f4552433732313a20696e76616c696420746f6b656e2049440000000000000000600082015250565b7f4552433732313a20617070726f76616c20746f2063757272656e74206f776e6560008201527f7200000000000000000000000000000000000000000000000000000000000000602082015250565b7f4552433732313a20617070726f76652063616c6c6572206973206e6f7420746f60008201527f6b656e206f776e6572206f7220617070726f76656420666f7220616c6c000000602082015250565b7f455243373231456e756d657261626c653a20676c6f62616c20696e646578206f60008201527f7574206f6620626f756e64730000000000000000000000000000000000000000602082015250565b7f455243373231456e756d657261626c653a20636f6e736563757469766520747260008201527f616e7366657273206e6f7420737570706f727465640000000000000000000000602082015250565b6134c981612ed7565b81146134d457600080fd5b50565b6134e081612ee9565b81146134eb57600080fd5b50565b6134f781612ef5565b811461350257600080fd5b50565b61350e81612f41565b811461351957600080fd5b5056fea264697066735822122067ee9e893cf1ec1ebbc0c1b56498d6e8b92f5c01b202927c521eea7161b798b164736f6c63430008040033",
  "linkReferences": {},
  "deployedLinkReferences": {}
}